:1000000012C021C020C01FC01EC01DC01CC01BC00C
:100010001AC019C018C017C016C015C014C013C02C
:100020008EC011C010C011241FBECFE5D2E0DEBFCC
:10003000CDBF20E0A0E6B0E001C01D92A736B20718
:10004000E1F74FD1E4C2DCCF1BBA8FEE8ABB18BAFE
:100050008FE787BB089585B3806E85BBAC9883B767
:10006000816083BF8FB581608FBD89B7816089BF93
:100070001DBC80B7826880BF1CBC80B7816280BF16
:10008000C098C29AD898D99A0895682F70E080E0F5
:1000900090E0C6D12DEC3CEC4CE45FE34DD220E087
:1000A00030E04FE253E42AD18DD1862F0895CF93CB
:1000B000C62F87FF03C0D998D89A02C0D898D99A7A
:1000C0008F7711F0E2DF01C080E08CBDC7FF03C075
:1000D000C298C09A02C0C098C29A8C2F8F7711F034
:1000E000D4DF01C080E08DBDCF91089580FF02C0B4
:1000F000DA9A01C0DA9881FF02C0DB9A01C0DB986E
:1001000082FF02C0DD9A01C0DD9883FF02C0DE9A43
:1001100001C0DE9884FF02C0C49A01C0C49885FF64
:1001200002C0C69A01C0C69886FF02C0DF9A01C00D
:10013000DF9887FF02C0C59A0895C59808951F9259
:100140000F920FB60F9211242F933F934F935F930B
:100150006F937F938F939F93AF93BF93EF93FF938F
:10016000AC9B02C0AC9801C0AC9A83B322B390E0C0
:10017000922B2091650030916600BC01621B730BCD
:1001800090936600809365006E3A26E1720758F0FE
:10019000109264001092630010926200109261004D
:1001A000109260008DC06D3A36E1730709F488C083
:1001B00080916400883108F083C090916000913094
:1001C00041F120F0923009F44DC07AC09091630063
:1001D00068327D4058F041E050E0082E01C0440FE5
:1001E0000A94EAF7492B409363000BC021E030E00A
:1001F000082E01C0220F0A94EAF7209529232093A4
:1002000063008F5F80936400883008F459C081E0F8
:1002100026C0482F50E09091620048505109683242
:100220007D4068F061E070E09B0102C0220F331F47
:100230004A95E2F7A901492B409362000AC021E0E8
:1002400030E001C0220F4A95EAF720952923209338
:1002500062008F5F80936400803190F182E0809330
:1002600060002EC0482F50E090916100405151092C
:1002700068327D4068F061E070E09B0102C0220FAF
:10028000331F4A95E2F7A901492B409361000AC048
:1002900021E030E001C0220F4A95EAF7209529239A
:1002A000209361008F5F80936400883149F48091CE
:1002B00061001CDF6091620080916300F8DEA89508
:1002C000FF91EF91BF91AF919F918F917F916F912E
:1002D0005F914F913F912F910F900FBE0F901F9004
:1002E0001895B2DEB8DE9DE088E10FB6F894A895C7
:1002F00081BD0FBE91BD7894FFCF5058BB27AA2770
:100300000ED0E0C0D1D030F0D6D020F031F49F3FF5
:1003100011F41EF4C6C00EF4E095E7FBBCC0E92F53
:10032000E2D080F3BA17620773078407950718F0C5
:1003300071F49EF5FAC00EF4E0950B2EBA2FA02DA5
:100340000B01B90190010C01CA01A0011124FF2782
:10035000591B99F0593F50F4503E68F11A16F0407D
:10036000A22F232F342F4427585FF3CF469537957C
:100370002795A795F0405395C9F77EF41F16BA0B41
:10038000620B730B840BBAF09150A1F0FF0FBB1FEF
:10039000661F771F881FC2F70EC0BA0F621F731F38
:1003A000841F48F4879577956795B795F7959E3F95
:1003B00008F0B3CF9395880F08F09927EE0F979523
:1003C0008795089598D088F09F5790F0B92F992776
:1003D000B751A0F0D1F0660F771F881F991F1AF050
:1003E000BA95C9F712C0B13081F09FD0B1E008953D
:1003F0009CC0672F782F8827B85F39F0B93FCCF3BE
:10040000869577956795B395D9F73EF49095809545
:10041000709561957F4F8F4F9F4F0895E89409C065
:1004200097FB3EF490958095709561957F4F8F4F27
:100430009F4F9923A9F0F92F96E9BB279395F6953D
:10044000879577956795B795F111F8CFFAF4BB0FBB
:1004500011F460FF1BC06F5F7F4F8F4F9F4F16C01F
:10046000882311F096E911C0772321F09EE8872FA9
:10047000762F05C0662371F096E8862F70E060E065
:100480002AF09A95660F771F881FDAF7880F9695DE
:10049000879597F9089597F99F6780E870E060E085
:1004A00008959FEF80EC089500240A94161617060D
:1004B00018060906089500240A9412161306140655
:1004C00005060895092E0394000C11F4882352F0B8
:1004D000BB0F40F4BF2B11F460FF04C06F5F7F4F70
:1004E0008F4F9F4F089557FD9058440F551F59F057
:1004F0005F3F71F04795880F97FB991F61F09F3F11
:1005000079F087950895121613061406551FF2CF39
:100510004695F1DF08C0161617061806991FF1CF89
:1005200086957105610508940895E894BB276627B0
:100530007727CB0197F908950AD0C4CFB5DF28F00B
:10054000BADF18F0952309F0A6CFABCFEFCFCBDF02
:10055000A8F39923D9F35523C9F3950F50E0551FFC
:10056000AA27EE27FF27BB2700240894679520F4CD
:10057000E20FF31FB41F0A1E220F331F441FAA1FCE
:100580006695A9F7779530F4F30FB41F0A1E121E73
:1005900008F46395330F441FAA1F221F769599F71D
:1005A000879520F4B40F0A1E121E631F440FAA1F62
:1005B000221F331F8695A9F7862F712D602D1124D8
:1005C0009F5750408AF0E1F088234AF0EE0FFF1F5A
:1005D000BB1F661F771F881F91505040A9F79E3F91
:1005E000510570F058CFA2CF5F3FECF3983EDCF39B
:1005F000869577956795B795F795E7959F5FC1F7CE
:10060000FE2B880F911D9695879597F90895F8947C
:02061000FFCF1A
:00000001FF
